{
    "contractName": "ContratoCompra",
    "abi": [
        {
            "constant": false,
            "inputs": [
                {
                    "name": "correlativo",
                    "type": "string"
                },
                {
                    "name": "almacen",
                    "type": "string"
                },
                {
                    "name": "fecha",
                    "type": "uint256"
                }
            ],
            "name": "agregarNotaIngresoAlmacenAcopio",
            "outputs": [],
            "payable": false,
            "stateMutability": "nonpayable",
            "type": "function"
        },
        {
            "constant": true,
            "inputs": [],
            "name": "obtenerTotalContratos",
            "outputs": [
                {
                    "name": "",
                    "type": "uint256"
                }
            ],
            "payable": false,
            "stateMutability": "view",
            "type": "function"
        },
        {
            "constant": true,
            "inputs": [
                {
                    "name": "correlativo",
                    "type": "string"
                }
            ],
            "name": "obtenerContrato",
            "outputs": [
                {
                    "components": [
                        {
                            "name": "correlativo",
                            "type": "string"
                        },
                        {
                            "name": "distribuidor",
                            "type": "string"
                        },
                        {
                            "name": "producto",
                            "type": "string"
                        },
                        {
                            "name": "subProducto",
                            "type": "string"
                        },
                        {
                            "name": "tipoProduccion",
                            "type": "string"
                        },
                        {
                            "name": "calidad",
                            "type": "string"
                        },
                        {
                            "name": "gradoPrepracion",
                            "type": "string"
                        },
                        {
                            "name": "fechaSolicitud",
                            "type": "uint256"
                        }
                    ],
                    "name": "",
                    "type": "tuple"
                }
            ],
            "payable": false,
            "stateMutability": "view",
            "type": "function"
        },
        {
            "constant": false,
            "inputs": [
                {
                    "name": "correlativo",
                    "type": "string"
                },
                {
                    "name": "distribuidor",
                    "type": "string"
                },
                {
                    "name": "producto",
                    "type": "string"
                },
                {
                    "name": "subProducto",
                    "type": "string"
                },
                {
                    "name": "tipoProduccion",
                    "type": "string"
                },
                {
                    "name": "calidad",
                    "type": "string"
                },
                {
                    "name": "gradoPrepracion",
                    "type": "string"
                },
                {
                    "name": "fechaSolicitud",
                    "type": "uint256"
                }
            ],
            "name": "agregarContrato",
            "outputs": [],
            "payable": false,
            "stateMutability": "nonpayable",
            "type": "function"
        },
        {
            "constant": true,
            "inputs": [],
            "name": "owner",
            "outputs": [
                {
                    "name": "",
                    "type": "address"
                }
            ],
            "payable": false,
            "stateMutability": "view",
            "type": "function"
        },
        {
            "constant": true,
            "inputs": [
                {
                    "name": "contrato",
                    "type": "string"
                }
            ],
            "name": "obtenerAgricultores",
            "outputs": [
                {
                    "components": [
                        {
                            "name": "contrato",
                            "type": "string"
                        },
                        {
                            "name": "nroDocumento",
                            "type": "string"
                        },
                        {
                            "name": "finca",
                            "type": "string"
                        },
                        {
                            "name": "certificacion",
                            "type": "string"
                        }
                    ],
                    "name": "",
                    "type": "tuple[]"
                }
            ],
            "payable": false,
            "stateMutability": "view",
            "type": "function"
        },
        {
            "constant": false,
            "inputs": [
                {
                    "name": "guia",
                    "type": "string"
                },
                {
                    "name": "cafe_gramos",
                    "type": "uint256"
                },
                {
                    "name": "cafe_porcentaje",
                    "type": "string"
                },
                {
                    "name": "descarte_gramos",
                    "type": "uint256"
                },
                {
                    "name": "descarte_porcentaje",
                    "type": "string"
                },
                {
                    "name": "cascara_gramos",
                    "type": "uint256"
                },
                {
                    "name": "cascara_porcentaje",
                    "type": "string"
                },
                {
                    "name": "total_gramos",
                    "type": "uint256"
                },
                {
                    "name": "total_porcentaje",
                    "type": "string"
                }
            ],
            "name": "agregarAnalisisFisicoCafe",
            "outputs": [],
            "payable": false,
            "stateMutability": "nonpayable",
            "type": "function"
        },
        {
            "constant": false,
            "inputs": [
                {
                    "name": "contratoSocioFincaId",
                    "type": "uint256"
                },
                {
                    "name": "porcentajeHumedad",
                    "type": "string"
                },
                {
                    "name": "olor",
                    "type": "string"
                },
                {
                    "name": "color",
                    "type": "string"
                },
                {
                    "name": "observacion",
                    "type": "string"
                },
                {
                    "name": "responsable",
                    "type": "string"
                }
            ],
            "name": "agregarControlCalidad",
            "outputs": [],
            "payable": false,
            "stateMutability": "nonpayable",
            "type": "function"
        },
        {
            "constant": false,
            "inputs": [
                {
                    "name": "contrato",
                    "type": "string"
                },
                {
                    "name": "nroDocumento",
                    "type": "string"
                },
                {
                    "name": "finca",
                    "type": "string"
                },
                {
                    "name": "certificacion",
                    "type": "string"
                }
            ],
            "name": "agregarAgricultor",
            "outputs": [],
            "payable": false,
            "stateMutability": "nonpayable",
            "type": "function"
        },
        {
            "constant": true,
            "inputs": [
                {
                    "name": "contratoSocioFincaId",
                    "type": "uint256"
                }
            ],
            "name": "obtenerControlCalidad",
            "outputs": [
                {
                    "components": [
                        {
                            "name": "porcentajeHumedad",
                            "type": "string"
                        },
                        {
                            "name": "olor",
                            "type": "string"
                        },
                        {
                            "name": "color",
                            "type": "string"
                        },
                        {
                            "name": "observacion",
                            "type": "string"
                        },
                        {
                            "name": "responsable",
                            "type": "string"
                        }
                    ],
                    "name": "",
                    "type": "tuple"
                }
            ],
            "payable": false,
            "stateMutability": "view",
            "type": "function"
        },
        {
            "constant": true,
            "inputs": [
                {
                    "name": "correlativo",
                    "type": "string"
                }
            ],
            "name": "obtenerNotaIngresoAlmacenAcopio",
            "outputs": [
                {
                    "components": [
                        {
                            "name": "correlativo",
                            "type": "string"
                        },
                        {
                            "name": "almacen",
                            "type": "string"
                        },
                        {
                            "name": "fecha",
                            "type": "uint256"
                        }
                    ],
                    "name": "",
                    "type": "tuple"
                }
            ],
            "payable": false,
            "stateMutability": "view",
            "type": "function"
        },
        {
            "constant": true,
            "inputs": [
                {
                    "name": "guia",
                    "type": "string"
                }
            ],
            "name": "obtenerAnalisisFisicoCafe",
            "outputs": [
                {
                    "components": [
                        {
                            "name": "cafe_gramos",
                            "type": "uint256"
                        },
                        {
                            "name": "cafe_porcentaje",
                            "type": "string"
                        },
                        {
                            "name": "descarte_gramos",
                            "type": "uint256"
                        },
                        {
                            "name": "descarte_porcentaje",
                            "type": "string"
                        },
                        {
                            "name": "cascara_gramos",
                            "type": "uint256"
                        },
                        {
                            "name": "cascara_porcentaje",
                            "type": "string"
                        },
                        {
                            "name": "total_gramos",
                            "type": "uint256"
                        },
                        {
                            "name": "total_porcentaje",
                            "type": "string"
                        }
                    ],
                    "name": "",
                    "type": "tuple"
                }
            ],
            "payable": false,
            "stateMutability": "view",
            "type": "function"
        },
        {
            "anonymous": false,
            "inputs": [
                {
                    "indexed": false,
                    "name": "correlativo",
                    "type": "string"
                },
                {
                    "indexed": false,
                    "name": "distribuidor",
                    "type": "string"
                },
                {
                    "indexed": false,
                    "name": "producto",
                    "type": "string"
                },
                {
                    "indexed": false,
                    "name": "subProducto",
                    "type": "string"
                },
                {
                    "indexed": false,
                    "name": "tipoProduccion",
                    "type": "string"
                },
                {
                    "indexed": false,
                    "name": "calidad",
                    "type": "string"
                },
                {
                    "indexed": false,
                    "name": "gradoPrepracion",
                    "type": "string"
                },
                {
                    "indexed": false,
                    "name": "fechaSolicitud",
                    "type": "uint256"
                }
            ],
            "name": "nuevo_contrato",
            "type": "event"
        },
        {
            "anonymous": false,
            "inputs": [
                {
                    "indexed": false,
                    "name": "contrato",
                    "type": "string"
                },
                {
                    "indexed": false,
                    "name": "nroDocumento",
                    "type": "string"
                },
                {
                    "indexed": false,
                    "name": "finca",
                    "type": "string"
                },
                {
                    "indexed": false,
                    "name": "certificacion",
                    "type": "string"
                }
            ],
            "name": "nuevo_agricultor",
            "type": "event"
        },
        {
            "anonymous": false,
            "inputs": [
                {
                    "indexed": false,
                    "name": "contratoSocioFincaId",
                    "type": "uint256"
                },
                {
                    "indexed": false,
                    "name": "porcentajeHumedad",
                    "type": "string"
                },
                {
                    "indexed": false,
                    "name": "olor",
                    "type": "string"
                },
                {
                    "indexed": false,
                    "name": "color",
                    "type": "string"
                },
                {
                    "indexed": false,
                    "name": "observacion",
                    "type": "string"
                },
                {
                    "indexed": false,
                    "name": "responsable",
                    "type": "string"
                }
            ],
            "name": "agregar_control_calidad",
            "type": "event"
        },
        {
            "anonymous": false,
            "inputs": [
                {
                    "indexed": false,
                    "name": "guia",
                    "type": "string"
                },
                {
                    "indexed": false,
                    "name": "cafe_gramos",
                    "type": "uint256"
                },
                {
                    "indexed": false,
                    "name": "cafe_porcentaje",
                    "type": "string"
                },
                {
                    "indexed": false,
                    "name": "descarte_gramos",
                    "type": "uint256"
                },
                {
                    "indexed": false,
                    "name": "descarte_porcentaje",
                    "type": "string"
                },
                {
                    "indexed": false,
                    "name": "cascara_gramos",
                    "type": "uint256"
                },
                {
                    "indexed": false,
                    "name": "cascara_porcentaje",
                    "type": "string"
                },
                {
                    "indexed": false,
                    "name": "total_gramos",
                    "type": "uint256"
                },
                {
                    "indexed": false,
                    "name": "total_porcentaje",
                    "type": "string"
                }
            ],
            "name": "agregar_analisis_fisico",
            "type": "event"
        },
        {
            "anonymous": false,
            "inputs": [
                {
                    "indexed": false,
                    "name": "correlativo",
                    "type": "string"
                },
                {
                    "indexed": false,
                    "name": "almacen",
                    "type": "string"
                },
                {
                    "indexed": false,
                    "name": "fecha",
                    "type": "uint256"
                }
            ],
            "name": "agregar_nota_ingreso_almacen_acopio",
            "type": "event"
        }
    ],
    "bytecode": "608060405234801561001057600080fd5b50612b0b806100206000396000f3fe6080604052600436106100b95763ffffffff7c010000000000000000000000000000000000000000000000000000000060003504166348263b2181146100be5780634f5e2e42146100e057806371e792ba1461010b5780637dbb4d09146101385780638da5cb5b14610158578063bab2a0d01461017a578063be95e910146101a7578063ea7ba5d3146101c7578063ede151a5146101e7578063f6d771b514610207578063f771079f14610234578063faefd77614610261575b600080fd5b3480156100ca57600080fd5b506100de6100d936600461210a565b61028e565b005b3480156100ec57600080fd5b506100f5610382565b604051610102919061298a565b60405180910390f35b34801561011757600080fd5b5061012b610126366004611eb6565b610389565b6040516101029190612957565b34801561014457600080fd5b506100de610153366004611fb3565b610821565b34801561016457600080fd5b5061016d610dc8565b604051610102919061274a565b34801561018657600080fd5b5061019a610195366004611eb6565b610de4565b604051610102919061275e565b3480156101b357600080fd5b506100de6101c2366004612186565b6110f1565b3480156101d357600080fd5b506100de6101e23660046122df565b611270565b3480156101f357600080fd5b506100de610202366004611ef3565b611375565b34801561021357600080fd5b506102276102223660046122c1565b6114c0565b6040516101029190612968565b34801561024057600080fd5b5061025461024f366004611eb6565b6117d2565b6040516101029190612979565b34801561026d57600080fd5b5061028161027c366004611eb6565b611989565b6040516101029190612946565b606060405190810160405280848152602001838152602001828152506006846040518082805190602001908083835b602083106102dc5780518252601f1990920191602091820191016102bd565b51815160209384036101000a600019018019909216911617905292019485525060405193849003810190932084518051919461031d94508593500190611c3b565b5060208281015180516103369260018501920190611c3b565b50604091820151600290910155517f8f5440eb75d9501f7753912ab3b4ad2987bdbd0821d1c862b89123d7f4913743906103759085908590859061286c565b60405180910390a1505050565b6001545b90565b610391611cb9565b6002826040518082805190602001908083835b602083106103c35780518252601f1990920191602091820191016103a4565b518151602093840361010090810a600019908101801990941693909216929092179092529290940196875260408051978890038201882080546002600182161586029097011695909504601f81018390049092028801610120908101909152918701818152939550869450859250908401828280156104835780601f1061045857610100808354040283529160200191610483565b820191906000526020600020905b81548152906001019060200180831161046657829003601f168201915b50505050508152602001600182018054600181600116156101000203166002900480601f0160208091040260200160405190810160405280929190818152602001828054600181600116156101000203166002900480156105255780601f106104fa57610100808354040283529160200191610525565b820191906000526020600020905b81548152906001019060200180831161050857829003601f168201915b5050509183525050600282810180546040805160206001841615610100026000190190931694909404601f810183900483028501830190915280845293810193908301828280156105b75780601f1061058c576101008083540402835291602001916105b7565b820191906000526020600020905b81548152906001019060200180831161059a57829003601f168201915b505050918352505060038201805460408051602060026001851615610100026000190190941693909304601f810184900484028201840190925281815293820193929183018282801561064b5780601f106106205761010080835404028352916020019161064b565b820191906000526020600020905b81548152906001019060200180831161062e57829003601f168201915b505050918352505060048201805460408051602060026001851615610100026000190190941693909304601f81018490048402820184019092528181529382019392918301828280156106df5780601f106106b4576101008083540402835291602001916106df565b820191906000526020600020905b8154815290600101906020018083116106c257829003601f168201915b505050918352505060058201805460408051602060026001851615610100026000190190941693909304601f81018490048402820184019092528181529382019392918301828280156107735780601f1061074857610100808354040283529160200191610773565b820191906000526020600020905b81548152906001019060200180831161075657829003601f168201915b505050918352505060068201805460408051602060026001851615610100026000190190941693909304601f81018490048402820184019092528181529382019392918301828280156108075780601f106107dc57610100808354040283529160200191610807565b820191906000526020600020905b8154815290600101906020018083116107ea57829003601f168201915b505050505081526020016007820154815250509050919050565b876002896040518082805190602001908083835b602083106108545780518252601f199092019160209182019101610835565b51815160209384036101000a600019018019909216911617905292019485525060405193849003810190932084516108959591949190910192509050611c3b565b50866002896040518082805190602001908083835b602083106108c95780518252601f1990920191602091820191016108aa565b6001836020036101000a03801982511681845116808217855250505050505090500191505090815260200160405180910390206001019080519060200190610912929190611c3b565b50856002896040518082805190602001908083835b602083106109465780518252601f199092019160209182019101610927565b51815160209384036101000a6000190180199092169116179052920194855250604051938490038101909320845161098b956002909201949190910192509050611c3b565b50846002896040518082805190602001908083835b602083106109bf5780518252601f1990920191602091820191016109a0565b51815160209384036101000a60001901801990921691161790529201948552506040519384900381019093208451610a04956003909201949190910192509050611c3b565b50836002896040518082805190602001908083835b60208310610a385780518252601f199092019160209182019101610a19565b51815160209384036101000a60001901801990921691161790529201948552506040519384900381019093208451610a7d956004909201949190910192509050611c3b565b50826002896040518082805190602001908083835b60208310610ab15780518252601f199092019160209182019101610a92565b51815160209384036101000a60001901801990921691161790529201948552506040519384900381019093208451610af6956005909201949190910192509050611c3b565b50816002896040518082805190602001908083835b60208310610b2a5780518252601f199092019160209182019101610b0b565b51815160209384036101000a60001901801990921691161790529201948552506040519384900381019093208451610b6f956006909201949190910192509050611c3b565b50806002896040518082805190602001908083835b60208310610ba35780518252601f199092019160209182019101610b84565b51815160209384036101000a6000190180199092169116179052920194855250604051938490038101842060070194909455505089516001926002928c9290918291908401908083835b60208310610c0c5780518252601f199092019160209182019101610bed565b518151600019602094850361010090810a8201928316921993909316919091179092529490920196875260405196879003810190962087546001818101808b5560009a8b52989099208254989992986008909202019650610c80955086948894506002928216150290920190911604611cff565b5060018201816001019080546001816001161561010002031660029004610ca8929190611cff565b5060028281018054610ccd928481019291600019610100600183161502011604611cff565b5060038201816003019080546001816001161561010002031660029004610cf5929190611cff565b5060048201816004019080546001816001161561010002031660029004610d1d929190611cff565b5060058201816005019080546001816001161561010002031660029004610d45929190611cff565b5060068201816006019080546001816001161561010002031660029004610d6d929190611cff565b50600791820154910155506040517f9c555ce9c1fa10c6587d0d210c9da0763d42666db5cbe88f15ead063e32338ce90610db6908a908a908a908a908a908a908a908a906127c6565b60405180910390a15050505050505050565b60005473ffffffffffffffffffffffffffffffffffffffff1681565b60606003826040518082805190602001908083835b60208310610e185780518252601f199092019160209182019101610df9565b51815160209384036101000a60001901801990921691161790529201948552506040805194859003820185208054808402870184019092528186529350915060009084015b828210156110e65760008481526020908190206040805160048602909201805460026001821615610100026000190190911604601f8101859004909402830160a09081019092526080830184815292939092849290918491840182828015610f065780601f10610edb57610100808354040283529160200191610f06565b820191906000526020600020905b815481529060010190602001808311610ee957829003601f168201915b50505050508152602001600182018054600181600116156101000203166002900480601f016020809104026020016040519081016040528092919081815260200182805460018160011615610100020316600290048015610fa85780601f10610f7d57610100808354040283529160200191610fa8565b820191906000526020600020905b815481529060010190602001808311610f8b57829003601f168201915b5050509183525050600282810180546040805160206001841615610100026000190190931694909404601f8101839004830285018301909152808452938101939083018282801561103a5780601f1061100f5761010080835404028352916020019161103a565b820191906000526020600020905b81548152906001019060200180831161101d57829003601f168201915b505050918352505060038201805460408051602060026001851615610100026000190190941693909304601f81018490048402820184019092528181529382019392918301828280156110ce5780601f106110a3576101008083540402835291602001916110ce565b820191906000526020600020905b8154815290600101906020018083116110b157829003601f168201915b50505050508152505081526020019060010190610e5d565b505050509050919050565b610100604051908101604052808981526020018881526020018781526020018681526020018581526020018481526020018381526020018281525060058a6040518082805190602001908083835b6020831061115e5780518252601f19909201916020918201910161113f565b51815160209384036101000a60001901801990921691161790529201948552506040519384900381019093208451815584840151805191946111a894506001860193500190611c3b565b5060408201516002820155606082015180516111ce916003840191602090910190611c3b565b506080820151600482015560a082015180516111f4916005840191602090910190611c3b565b5060c0820151600682015560e0820151805161121a916007840191602090910190611c3b565b509050507f03254128bc6d24fd3836f3995cd6efa7b84fae1c5d0a2e02058cb6da8356d64789898989898989898960405161125d999897969594939291906128a0565b60405180910390a1505050505050505050565b6040805160a081018252868152602080820187905281830186905260608201859052608082018490526000898152600482529290922081518051929391926112bb9284920190611c3b565b5060208281015180516112d49260018501920190611c3b565b50604082015180516112f0916002840191602090910190611c3b565b506060820151805161130c916003840191602090910190611c3b565b5060808201518051611328916004840191602090910190611c3b565b509050507f3bfc305019b16291ed13762905d78a60126877c8b526dd2627ce4e957281e63a86868686868660405161136596959493929190612998565b60405180910390a1505050505050565b61137d611d74565b60806040519081016040528086815260200185815260200184815260200183815250905060006003866040518082805190602001908083835b602083106113d55780518252601f1990920191602091820191016113b6565b51815160209384036101000a6000190180199092169116179052920194855250604051938490038101909320805460018101808355600083815286902088518051949850919689965060049093020193506114369284929190910190611c3b565b50602082810151805161144f9260018501920190611c3b565b506040820151805161146b916002840191602090910190611c3b565b5060608201518051611487916003840191602090910190611c3b565b505050507fbd052182a57c9f1fd22f490ff714bd0aee9863ffa92cb2abf6c7a817af6217a086868686604051611365949392919061276f565b6114c8611d9d565b6000828152600460209081526040918290208251815460026001821615610100026000190190911604601f8101849004909302810160c090810190945260a081018381529093919284928491908401828280156115665780601f1061153b57610100808354040283529160200191611566565b820191906000526020600020905b81548152906001019060200180831161154957829003601f168201915b50505050508152602001600182018054600181600116156101000203166002900480601f0160208091040260200160405190810160405280929190818152602001828054600181600116156101000203166002900480156116085780601f106115dd57610100808354040283529160200191611608565b820191906000526020600020905b8154815290600101906020018083116115eb57829003601f168201915b5050509183525050600282810180546040805160206001841615610100026000190190931694909404601f8101839004830285018301909152808452938101939083018282801561169a5780601f1061166f5761010080835404028352916020019161169a565b820191906000526020600020905b81548152906001019060200180831161167d57829003601f168201915b505050918352505060038201805460408051602060026001851615610100026000190190941693909304601f810184900484028201840190925281815293820193929183018282801561172e5780601f106117035761010080835404028352916020019161172e565b820191906000526020600020905b81548152906001019060200180831161171157829003601f168201915b505050918352505060048201805460408051602060026001851615610100026000190190941693909304601f81018490048402820184019092528181529382019392918301828280156117c25780601f10611797576101008083540402835291602001916117c2565b820191906000526020600020905b8154815290600101906020018083116117a557829003601f168201915b5050505050815250509050919050565b6117da611dcd565b6006826040518082805190602001908083835b6020831061180c5780518252601f1990920191602091820191016117ed565b518151600019602094850361010090810a8201928316921993909316919091179092529490920196875260408051978890038201882080546080601f600260018416159099029096019091169690960493840183900490920288018501905260608701828152909550869450928592508401828280156118cd5780601f106118a2576101008083540402835291602001916118cd565b820191906000526020600020905b8154815290600101906020018083116118b057829003601f168201915b50505050508152602001600182018054600181600116156101000203166002900480601f01602080910402602001604051908101604052809291908181526020018280546001816001161561010002031660029004801561196f5780601f106119445761010080835404028352916020019161196f565b820191906000526020600020905b81548152906001019060200180831161195257829003601f168201915b505050505081526020016002820154815250509050919050565b611991611def565b6005826040518082805190602001908083835b602083106119c35780518252601f1990920191602091820191016119a4565b518151602093840361010090810a600019908101801990941693909216929092179092529290940196875260408051978890038201882088840182528054895260018082018054845160029382161590970290980190971604601f81018490048402850184019092528184529650878201955091939250830182828015611a8b5780601f10611a6057610100808354040283529160200191611a8b565b820191906000526020600020905b815481529060010190602001808311611a6e57829003601f168201915b505050918352505060028281015460208084019190915260038401805460408051601f60001961010060018616150201909316959095049182018490048402850184018152818552909401939091830182828015611b2a5780601f10611aff57610100808354040283529160200191611b2a565b820191906000526020600020905b815481529060010190602001808311611b0d57829003601f168201915b5050509183525050600482015460208083019190915260058301805460408051601f60026000196101006001871615020190941693909304928301859004850281018501825282815294019392830182828015611bc85780601f10611b9d57610100808354040283529160200191611bc8565b820191906000526020600020905b815481529060010190602001808311611bab57829003601f168201915b5050509183525050600682015460208083019190915260078301805460408051601f600260001961010060018716150201909416939093049283018590048502810185018252828152940193928301828280156117c25780601f10611797576101008083540402835291602001916117c2565b828054600181600116156101000203166002900490600052602060002090601f016020900481019282601f10611c7c57805160ff1916838001178555611ca9565b82800160010185558215611ca9579182015b82811115611ca9578251825591602001919060010190611c8e565b50611cb5929150611e35565b5090565b6101006040519081016040528060608152602001606081526020016060815260200160608152602001606081526020016060815260200160608152602001600081525090565b828054600181600116156101000203166002900490600052602060002090601f016020900481019282601f10611d385780548555611ca9565b82800160010185558215611ca957600052602060002091601f016020900482015b82811115611ca9578254825591600101919060010190611d59565b608060405190810160405280606081526020016060815260200160608152602001606081525090565b60a06040519081016040528060608152602001606081526020016060815260200160608152602001606081525090565b6060604051908101604052806060815260200160608152602001600081525090565b6101006040519081016040528060008152602001606081526020016000815260200160608152602001600081526020016060815260200160008152602001606081525090565b61038691905b80821115611cb55760008155600101611e3b565b6000601f82018313611e6057600080fd5b8135611e73611e6e82612a3b565b612a14565b91508082526020830160208301858383011115611e8f57600080fd5b611e9a838284612a8b565b50505092915050565b6000611eaf8235610386565b9392505050565b600060208284031215611ec857600080fd5b813567ffffffffffffffff811115611edf57600080fd5b611eeb84828501611e4f565b949350505050565b60008060008060808587031215611f0957600080fd5b843567ffffffffffffffff811115611f2057600080fd5b611f2c87828801611e4f565b945050602085013567ffffffffffffffff811115611f4957600080fd5b611f5587828801611e4f565b935050604085013567ffffffffffffffff811115611f7257600080fd5b611f7e87828801611e4f565b925050606085013567ffffffffffffffff811115611f9b57600080fd5b611fa787828801611e4f565b91505092959194509250565b600080600080600080600080610100898b031215611fd057600080fd5b883567ffffffffffffffff811115611fe757600080fd5b611ff38b828c01611e4f565b985050602089013567ffffffffffffffff81111561201057600080fd5b61201c8b828c01611e4f565b975050604089013567ffffffffffffffff81111561203957600080fd5b6120458b828c01611e4f565b965050606089013567ffffffffffffffff81111561206257600080fd5b61206e8b828c01611e4f565b955050608089013567ffffffffffffffff81111561208b57600080fd5b6120978b828c01611e4f565b94505060a089013567ffffffffffffffff8111156120b457600080fd5b6120c08b828c01611e4f565b93505060c089013567ffffffffffffffff8111156120dd57600080fd5b6120e98b828c01611e4f565b92505060e06120fa8b828c01611ea3565b9150509295985092959890939650565b60008060006060848603121561211f57600080fd5b833567ffffffffffffffff81111561213657600080fd5b61214286828701611e4f565b935050602084013567ffffffffffffffff81111561215f57600080fd5b61216b86828701611e4f565b925050604061217c86828701611ea3565b9150509250925092565b60008060008060008060008060006101208a8c0312156121a557600080fd5b893567ffffffffffffffff8111156121bc57600080fd5b6121c88c828d01611e4f565b99505060206121d98c828d01611ea3565b98505060408a013567ffffffffffffffff8111156121f657600080fd5b6122028c828d01611e4f565b97505060606122138c828d01611ea3565b96505060808a013567ffffffffffffffff81111561223057600080fd5b61223c8c828d01611e4f565b95505060a061224d8c828d01611ea3565b94505060c08a013567ffffffffffffffff81111561226a57600080fd5b6122768c828d01611e4f565b93505060e06122878c828d01611ea3565b9250506101008a013567ffffffffffffffff8111156122a557600080fd5b6122b18c828d01611e4f565b9150509295985092959850929598565b6000602082840312156122d357600080fd5b6000611eeb8484611ea3565b60008060008060008060c087890312156122f857600080fd5b60006123048989611ea3565b965050602087013567ffffffffffffffff81111561232157600080fd5b61232d89828a01611e4f565b955050604087013567ffffffffffffffff81111561234a57600080fd5b61235689828a01611e4f565b945050606087013567ffffffffffffffff81111561237357600080fd5b61237f89828a01611e4f565b935050608087013567ffffffffffffffff81111561239c57600080fd5b6123a889828a01611e4f565b92505060a087013567ffffffffffffffff8111156123c557600080fd5b6123d189828a01611e4f565b9150509295509295509295565b6123e781612a6d565b82525050565b60006123f882612a69565b8084526020840193508360208202850161241185612a63565b60005b8481101561244857838303885261242c838351612489565b925061243782612a63565b602098909801979150600101612414565b50909695505050505050565b600061245f82612a69565b808452612473816020860160208601612a97565b61247c81612ac7565b9093016020019392505050565b80516080808452600091908401906124a18282612454565b915050602083015184820360208601526124bb8282612454565b915050604083015184820360408601526124d58282612454565b915050606083015184820360608601526124ef8282612454565b95945050505050565b805160009061010084019061250d8582612741565b50602083015184820360208601526125258282612454565b915050604083015161253a6040860182612741565b50606083015184820360608601526125528282612454565b91505060808301516125676080860182612741565b5060a083015184820360a086015261257f8282612454565b91505060c083015161259460c0860182612741565b5060e083015184820360e08601526124ef8282612454565b8051610100808452600091908401906125c58282612454565b915050602083015184820360208601526125df8282612454565b915050604083015184820360408601526125f98282612454565b915050606083015184820360608601526126138282612454565b9150506080830151848203608086015261262d8282612454565b91505060a083015184820360a08601526126478282612454565b91505060c083015184820360c08601526126618282612454565b91505060e083015161267660e0860182612741565b509392505050565b805160a0808452600091908401906126968282612454565b915050602083015184820360208601526126b08282612454565b915050604083015184820360408601526126ca8282612454565b915050606083015184820360608601526126e48282612454565b915050608083015184820360808601526124ef8282612454565b80516060808452600091908401906127168282612454565b915050602083015184820360208601526127308282612454565b915050604083015161267660408601825b6123e781610386565b6020810161275882846123de565b92915050565b60208082528101611eaf81846123ed565b608080825281016127808187612454565b905081810360208301526127948186612454565b905081810360408301526127a88185612454565b905081810360608301526127bc8184612454565b9695505050505050565b61010080825281016127d8818b612454565b905081810360208301526127ec818a612454565b905081810360408301526128008189612454565b905081810360608301526128148188612454565b905081810360808301526128288187612454565b905081810360a083015261283c8186612454565b905081810360c08301526128508185612454565b905061285f60e0830184612741565b9998505050505050505050565b6060808252810161287d8186612454565b905081810360208301526128918185612454565b9050611eeb6040830184612741565b61012080825281016128b2818c612454565b90506128c1602083018b612741565b81810360408301526128d3818a612454565b90506128e26060830189612741565b81810360808301526128f48188612454565b905061290360a0830187612741565b81810360c08301526129158186612454565b905061292460e0830185612741565b8181036101008301526129378184612454565b9b9a5050505050505050505050565b60208082528101611eaf81846124f8565b60208082528101611eaf81846125ac565b60208082528101611eaf818461267e565b60208082528101611eaf81846126fe565b602081016127588284612741565b60c081016129a68289612741565b81810360208301526129b88188612454565b905081810360408301526129cc8187612454565b905081810360608301526129e08186612454565b905081810360808301526129f48185612454565b905081810360a0830152612a088184612454565b98975050505050505050565b60405181810167ffffffffffffffff81118282101715612a3357600080fd5b604052919050565b600067ffffffffffffffff821115612a5257600080fd5b506020601f91909101601f19160190565b60200190565b5190565b600073ffffffffffffffffffffffffffffffffffffffff8216612758565b82818337506000910152565b60005b83811015612ab2578181015183820152602001612a9a565b83811115612ac1576000848401525b50505050565b601f01601f19169056fea265627a7a7230582035184c6bbc5466e9f793ee71427bfebd6b64d7a89041fb35e92a06205a481f9c6c6578706572696d656e74616cf50037",
    "sourcePath": "d:/Proyectos/Alejandro/BlockChain/contracts/ContratoCompra.sol",
    "compiler": {
        "name": "solc",
        "version": "0.5.0+commit.1d4f565a"
    },
    "functionHashes": {
        "agregarAgricultor(string,string,string,string)": "ede151a5",
        "agregarAnalisisFisicoCafe(string,uint256,string,uint256,string,uint256,string,uint256,string)": "be95e910",
        "agregarContrato(string,string,string,string,string,string,string,uint256)": "7dbb4d09",
        "agregarControlCalidad(uint256,string,string,string,string,string)": "ea7ba5d3",
        "agregarNotaIngresoAlmacenAcopio(string,string,uint256)": "48263b21",
        "obtenerAgricultores(string)": "bab2a0d0",
        "obtenerAnalisisFisicoCafe(string)": "faefd776",
        "obtenerContrato(string)": "71e792ba",
        "obtenerControlCalidad(uint256)": "f6d771b5",
        "obtenerNotaIngresoAlmacenAcopio(string)": "f771079f",
        "obtenerTotalContratos()": "4f5e2e42",
        "owner()": "8da5cb5b"
    },
    "gasEstimates": {
        "creation": {
            "codeDepositCost": "2203800",
            "executionCost": "2353",
            "totalCost": "2206153"
        },
        "external": {
            "agregarAgricultor(string,string,string,string)": "infinite",
            "agregarAnalisisFisicoCafe(string,uint256,string,uint256,string,uint256,string,uint256,string)": "infinite",
            "agregarContrato(string,string,string,string,string,string,string,uint256)": "infinite",
            "agregarControlCalidad(uint256,string,string,string,string,string)": "infinite",
            "agregarNotaIngresoAlmacenAcopio(string,string,uint256)": "infinite",
            "obtenerAgricultores(string)": "infinite",
            "obtenerAnalisisFisicoCafe(string)": "infinite",
            "obtenerContrato(string)": "infinite",
            "obtenerControlCalidad(uint256)": "infinite",
            "obtenerNotaIngresoAlmacenAcopio(string)": "infinite",
            "obtenerTotalContratos()": "infinite",
            "owner()": "infinite"
        }
    }
}